:020000040800F2
:1000000040180020F5020008650300086503000899
:100010006503000865030008650300080000000090
:100020000000000000000000000000006503000860
:100030006503000800000000B51A0008311E000822
:1000400065030008650300086503000865030008F0
:1000500065030008650300086503000865030008E0
:1000600065030008650300086503000865030008D0
:1000700065030008650300086503000865030008C0
:100080006503000865030008650300080000000020
:1000900000000000000000000000000065030008F0
:1000A0006503000865030008650300086503000890
:1000B0006503000865030008650300086503000880
:1000C0006503000865030008650300086503000870
:1000D0006503000865030008650300086503000860
:1000E00065030008650300086503000800000000C0
:1000F0000000000000000000000000000000000000
:1001000000000000000000000000000000000000EF
:1001100000000000000000006503000865030008FF
:100120005FF808F180B400AF40F21002C2F20002A2
:1001300040F2DC03C2F200031A6040F21003C2F284
:10014000000303F1C80240F2DC03C2F200035A606C
:1001500040F2D803C2F2000340F21002C2F20002E1
:100160001A6040F2D803C2F200031B684FF000028D
:100170001A6040F2D803C2F200031B684FF000027D
:100180005A6040F2D803C2F200031B684FF000022D
:100190009A60BD4680BC704780B500AF40F2E50371
:1001A000C2F200031B78DBB2012B1AD140F2D42338
:1001B000C2F200031B78012B01D100F0EDFF40F2E9
:1001C000E603C2F200031B78DBB2012B01D100F081
:1001D00047FD40F2E503C2F200034FF000021A703F
:1001E0000DE040F2E503C2F200031B78DBB203F13D
:1001F000FF33DAB240F2E503C2F200031A7080BDA9
:1002000080B500AF4EF21403CEF200034AF67F121F
:10021000C0F203021A604EF21003CEF200034FF058
:1002200007021A604EF61C53CEF200034EF61C5223
:10023000CEF20002126842F07F421A604EF620535E
:10024000CEF200034EF62052CEF2000212686FEAA0
:1002500002426FEA12421A6000F0DAFB01F0D8FAAB
:10026000FFF760FF40F2E503C2F200031B78DBB248
:1002700003F10103DAB240F2E503C2F200031A709F
:1002800041F6A970C0F600004FF000014FF4CA52C9
:10029000034B00F0E5FD024801F0FCFB80BD00BF10
:1002A0008802002080B500AF40F29823C2F200031C
:1002B00040F22012C2F200021A6040F29823C2F209
:1002C00000031A6840F29423C2F200031A6040F25D
:1002D0009823C2F200031B684FF001025A7140F2EA
:1002E0009823C2F200031B68184600F067FCFFF772
:1002F00053FF80BD80B582B000AF41F6C073C0F639
:1003000000037B6040F20003C2F200033B600BE09D
:100310007B681A683B681A603B6803F104033B6022
:100320007B6803F104037B603A6840F20C03C2F27D
:1003300000039A42ECD3094809494FF00002884271
:10034000B8BF40F8042BFFF6FAAF00F051FA01F005
:100350002FF807F10807BD4680BD000010000020FF
:100360004014002080B400AFFEE700BF90B587B016
:1003700000AF0346FB71F97940F2E802C2F20002D5
:100380000B464FEA43035B184FEAC303D31803F14C
:1003900004031B68FB60FB68002B00F0458140F202
:1003A000E503C2F200031B78DBB203F10103DAB20A
:1003B00040F2E503C2F200031A7040F21813C2F2D1
:1003C00000031B68002B11D1FA7913464FEA43034F
:1003D0009B184FEAC30340F2E802C2F200029A18E7
:1003E00040F21813C2F200031A601AE140F2181327
:1003F000C2F200031B687B61FB683B610DE13A6957
:100400007B695B68D31A3B613B69002B80F2CC802F
:100410007B695B69002B3ED07B695969FA79134689
:100420004FEA43039B184FEAC30340F2E802C2F2CB
:1004300000029B180B61F9797B69586940F2E80268
:10044000C2F200020B464FEA43035B184FEAC303B4
:10045000D31803F114031860F97940F2E802C2F2EC
:1004600000020B464FEA43035B184FEAC303D3185D
:1004700003F110037A691A60FA7913464FEA4303CD
:100480009B184FEAC30340F2E802C2F200029A1836
:100490007B695A6136E0F97940F21813C2F2000321
:1004A000186840F2E802C2F200020B464FEA43032A
:1004B0005B184FEAC303D31803F11003186040F22E
:1004C0001813C2F200031968FA7913464FEA43037E
:1004D0009B184FEAC30340F2E802C2F200029B18E5
:1004E0004B61FA7913464FEA43039B184FEAC30363
:1004F00040F2E802C2F200029A1840F21813C2F267
:1005000000031A60F979F87940F2E802C2F20002B9
:1005100003464FEA43031B184FEAC303D31803F102
:1005200010031B685A683B69D01840F2E802C2F217
:1005300000020B464FEA43035B184FEAC303D3188C
:1005400003F104031860F97940F2E802C2F20002F4
:100550000B464FEA43035B184FEAC303D31803F17A
:1005600010031868F97940F2E802C2F200020B4663
:100570004FEA43035B184FEAC303D31803F1100398
:100580001B685C68F97940F2E802C2F200020B468F
:100590004FEA43035B184FEAC303D31803F1040384
:1005A0001B68E31A43603CE03B69002B32DB7B694C
:1005B0001B69002B2ED1F97940F2E802C2F2000249
:1005C0000B464FEA43035B184FEAC303D31803F10A
:1005D00014037A691A60FA7913464FEA43039B18A9
:1005E0004FEAC30340F2E802C2F200029A187B69A4
:1005F0001A61F979386940F2E802C2F200020B464A
:100600004FEA43035B184FEAC303D31803F1040313
:10061000186006E07B691B697B617B69002B7FF4B6
:10062000EEAEFFF7B9FD00E000BF07F11C07BD46C5
:1006300090BD00BF80B584B000AF0346FB71FA796E
:1006400013464FEA43039B184FEAC30340F2E80204
:10065000C2F200029B18FB6040F2E503C2F2000305
:100660001B78DBB203F10103DAB240F2E503C2F218
:1006700000031A70FB685B69002B0BD1FB681B69D8
:10068000002B07D140F21813C2F200034FF0000212
:100690001A6049E0FB685B69002B1CD1FB681A6992
:1006A00040F21813C2F200031A6040F21813C2F2AB
:1006B00000031B684FF000025A61FB681B69FA686F
:1006C00012695168FA6852688A185A60FB684FF0DC
:1006D00000021A6128E0FB681B69002B09D1FB6846
:1006E0005B694FF000021A61FB684FF000025A612B
:1006F0001AE0FB685B69FA6812691A61FB681B699A
:10070000FA6852695A61FB681B69FA681269516894
:10071000FA6852688A185A60FB684FF000021A6142
:10072000FB684FF000025A61FFF736FD07F1100732
:10073000BD4680BD80B582B000AF40F21813C2F252
:1007400000031B687B602BE07B685B78002B0CD17F
:100750007B681B781846FFF76DFF7B684FF001023E
:100760009A707B68DB68984714E07B685B78012BA4
:1007700010D17B681B781846FFF75CFF7B689A688E
:100780007B685A607B681B781846FFF7EFFD7B6833
:10079000DB68984740F21813C2F200031B687B60C5
:1007A0007B68002B03D07B685B68002BCCD007F103
:1007B0000807BD4680BD00BF80B500AF40F2E5032D
:1007C000C2F200031B78DBB2012B0ED940F2D42316
:1007D000C2F200034FF001021A7040F2D623C2F2B7
:1007E00000034FF001021A7001E0FFF7A3FF80BD84
:1007F00080B500AF4FF48053C4F202034FF480522F
:10080000C4F20202126842F001021A604FF48052F0
:10081000C4F202024FF48053C4F2020359684FF04D
:100820000003CFF6FF030B4053604FF48053C4F234
:1008300002034FF48052C4F20202126822F0847262
:1008400022F480321A604FF48053C4F202034FF452
:100850008052C4F20202126822F480221A604FF41D
:100860008053C4F202034FF48052C4F20202526871
:1008700022F4FE025A604FF48053C4F202034FF494
:100880001F029A604FF48053C4F202034FF000023B
:10089000DA6200F009F84FF46D43CEF200034FF036
:1008A00000629A6080BD00BF80B500AF00F002F822
:1008B00080BD00BF80B483B000AF4FF000037B6009
:1008C0004FF000033B604FF48053C4F202034FF437
:1008D0008052C4F20202126842F480321A604FF46D
:1008E0008053C4F202031B6803F400333B607B684F
:1008F00003F101037B603B68002B03D17B68B3F5F8
:10090000A06FECD14FF48053C4F202031B6803F4D0
:100910000033002B03D04FF001033B6002E04FF0A7
:1009200000033B603B68012B6DD14FF48053C4F250
:1009300002034FF48052C4F2020252685A604FF42C
:100940008053C4F202034FF48052C4F20202526890
:100950005A604FF48053C4F202034FF48052C4F241
:10096000020252685A604FF48053C4F202034FF4FB
:100970008052C4F20202526822F47C125A604FF490
:100980008053C4F202034FF48052C4F20202526850
:1009900042F498125A604FF48053C4F202034FF4A9
:1009A0008052C4F20202126842F080721A6000BFE4
:1009B0004FF48053C4F202031B6803F00073002B52
:1009C000F6D04FF48053C4F202034FF48052C4F2C5
:1009D0000202526822F003025A604FF48053C4F2BC
:1009E00002034FF48052C4F20202526842F0020243
:1009F0005A6000BF4FF48053C4F202035B6803F0F7
:100A00000C03082BF6D107F10C07BD4680BC7047DC
:100A100080B485B000AF40F22013C2F20003BB6087
:100A2000194B7B604FF00003FB7315E0BB68FA7B4A
:100A30009A71BB684FF003025A71BB687A685A62B8
:100A4000BB6803F12C03BB607B6803F12C037B6064
:100A5000FB7B03F10103FB73FB7B042BE6D9BB6833
:100A6000FA7B9A71BB684FF000025A6240F28C2305
:100A7000C2F2000340F22012C2F200021A6007F133
:100A80001407BD4680BC70474C01002080B487B07D
:100A900000AF78607B681B79FB737B684FF00002C6
:100AA0005A7140F29823C2F200031B683B613B6914
:100AB0001B79FA7B9A422AD13A697B689A4226D0FE
:100AC0003B69002B23D040F2A023C2F20003D3E9FC
:100AD000000140F23843C2F20003D3E900239942F7
:100AE00008BF904213D23B6959898AB24FF0000384
:100AF00040F23841C2F20001D1E90001801841EB17
:100B0000030140F2A023C2F20003C3E9000140F256
:100B10009023C2F200031B683B613B69002B0DD19F
:100B200040F2E603C2F200034FF001021A7040F2F5
:100B30009023C2F200037A681A603AE03B691B799D
:100B4000FA7B9A4213D240F2E603C2F200034FF05E
:100B500001021A707B683A695A623B697A689A6244
:100B600040F29023C2F200037A681A6021E03B69E8
:100B70005B6A7B6109E07B691B79FA7B9A4208D347
:100B80007B693B617B695B6A7B617B69002BF2D18E
:100B900000E000BF7B687A695A623B697A685A62F2
:100BA0007B683A699A627B69002B02D07B697A681C
:100BB0009A6207F11C07BD4680BC704780B483B0C1
:100BC00000AF78607B685B6A002B0BD17B689B6A07
:100BD000002B07D140F29023C2F200034FF0000235
:100BE0001A6037E07B689B6A002B13D17B685A6AD6
:100BF00040F29023C2F200031A607B684FF00002BB
:100C00005A6240F29023C2F200031B684FF00002C8
:100C10009A621FE07B685B6A002B09D17B689B6A44
:100C20004FF000025A627B684FF000029A6211E0B6
:100C30007B689B6A7A68526A5A627B685B6A7A68E8
:100C4000926A9A627B684FF000025A627B684FF0AA
:100C500000029A6207F10C07BD4680BC704700BFD6
:100C600080B584B000AF40F29823C2F200031B6845
:100C7000FB6040F29023C2F200031B68BB60BB68BC
:100C8000002B00F0B08040F29423C2F200031B68F6
:100C9000FA689A4240F0A78040F2E503C2F20003EE
:100CA0001B78DBB2012B00F29E8040F2E403C2F21B
:100CB00000031B78DBB2002B40F0958040F2E60386
:100CC000C2F200034FF000021A70FB681B79FB713F
:100CD000BB681B79BB71FB685B79012B0DD040F2BF
:100CE0009423C2F20003BA681A60BB684FF0010295
:100CF0005A71B868FFF762FF38E0BA79FB799A4217
:100D000010D240F29423C2F20003BA681A60F86865
:100D1000FFF7BCFEB868FFF751FFBB684FF0010258
:100D20005A7123E0FA79BB799A425ED140F2A0234E
:100D3000C2F20003D3E9000140F23843C2F20003DB
:100D4000D3E90023994208BF90424ED140F2942348
:100D5000C2F20003BA681A60F868FFF797FEB86835
:100D6000FFF72CFFBB684FF001025A7140F2942349
:100D7000C2F200031B681A7940F29023C2F200030A
:100D80001B681B799A4217D140F29423C2F20003E8
:100D90001B6859898AB24FF0000340F23841C2F211
:100DA0000001D1E90001801841EB030140F2A023CA
:100DB000C2F20003C3E90001FB681A68FB68DB6844
:100DC0009A4208D3FB68DB681A684AF2A553C5F655
:100DD0005A239A4204D0FB689B79184601F0EAF83E
:100DE00000F05EFE02E000BF00E000BF07F1100768
:100DF000BD4680BD80B582B000AF40F2E503C2F2CF
:100E000000031B78DBB203F10103DAB240F2E50321
:100E1000C2F200031A7040F28C23C2F200031B6876
:100E2000002B04D1FFF7B8F94FF0000313E040F2B4
:100E30008C23C2F200031B687B6040F28C23C2F259
:100E400000031B685A6A40F28C23C2F200031A6046
:100E5000FFF7A2F97B68184607F10807BD4680BD79
:100E600080B588B000AFF860B9607A603B607A689E
:100E70004FF47F43C0F20F0313404FEA1323BB83A9
:100E80007B68FB76FB68002B02D14FF0FF038DE0FF
:100E90003B68002B02D14FF0FF0387E0FB7E402B25
:100EA00002D94FF0FF0381E0BB8B132B02D84FF028
:100EB000FF037BE0F868B9683A6800F08BFF78615F
:100EC000FFF798FF38613B69002B02D14FF0FF0319
:100ED0006CE03B697A691A603B69FA7E1A71BA8BD9
:100EE00013464FEA83739B1A4FEA830303F104030B
:100EF0003A68D2183B69DA603B69DA684AF2A5536E
:100F0000C5F65A2313603B694FF0FF321A623B6902
:100F10004FF000025A623B694FF000029A627A6811
:100F20004FF00003C7F6FF7313404FEA1353FB83E0
:100F3000FB8B002B02D14FF00A03FB833B69FA8B3A
:100F40005A813B694FF00002DA613B694FF0FF02C2
:100F50001A723B694FF000021A613B694FF00002C0
:100F60005A613B694FF000029A613B694FF0FF0202
:100F7000DA717B68002B13DB40F2E503C2F2000359
:100F80001B78DBB203F10103DAB240F2E503C2F2EF
:100F900000031A703869FFF779FDFFF7FDF803E0E9
:100FA0003B694FF002025A713B699B79184607F181
:100FB0002007BD4680BD00BF80B489B000AF786017
:100FC00039604FF00003FB614FF000033B614FF0CD
:100FD0000003BB614FF00003FB604FF000037B6137
:100FE0004FF00003BB603B68DB7803F00F03FB614D
:100FF0003B68DB7803F01003002B04D03B689B7840
:10100000FA691343FB613B681B88DBB2002B4ED0AF
:101010007B681B687B614FF00003BB6141E0BB69EB
:101020004FF0010202FA03F3FB603B681B881A468B
:10103000FB6813403B613A69FB689A422DD1BB695A
:101040004FEA8303FB60FB684FF00F0202FA03F3E1
:10105000BB60BB686FEA03037A6913407B61FB687E
:10106000FA6902FA03F37A6913437B613B68DB7820
:10107000282B07D1BB694FF0010202FA03F27B680B
:101080005A610AE03B68DB78482B06D1BB694FF018
:10109000010202FA03F27B681A61BB6903F10103E2
:1010A000BB61BB69072BBAD97B687A691A603B6858
:1010B0001B88FF2B53D97B685B687B614FF0000373
:1010C000BB6146E0BB6903F108034FF0010202FA7D
:1010D00003F3FB603B681B881A46FB6813403B61C7
:1010E0003A69FB689A4230D1BB694FEA8303FB60DF
:1010F000FB684FF00F0202FA03F3BB60BB686FEAB4
:1011000003037A6913407B61FB68FA6902FA03F30F
:101110007A6913437B613B68DB78282B08D1BB6974
:1011200003F108034FF0010202FA03F27B685A61EF
:101130003B68DB78482B08D1BB6903F108034FF00B
:10114000010202FA03F27B681A61BB6903F1010331
:10115000BB61BB69072BB5D97B687A695A6007F117
:101160002407BD4680BC704780B483B000AF786070
:1011700013460A467A807B707B78002B03D07A88EE
:101180007B681A6102E07A887B685A6107F10C0774
:10119000BD4680BC704700BF80B582B000AF40F252
:1011A000D523C2F200031B78012B08D100F0D0FA3E
:1011B00040F2D523C2F200034FF000021A7040F251
:1011C000D623C2F200031B78012B73D1FFF7B2FACA
:1011D00040F2D623C2F200034FF000021A7069E019
:1011E00000F050FC40F2A823C2F200035B7840F20A
:1011F000A822C2F200024FEAC303D3183A4603F111
:10120000040393E8030082E8030040F2A823C2F23B
:1012100000035B7803F1010146F26763C6F266637F
:1012200083FB01234FEA63024FEAE173D21A1346AC
:101230004FEA83039B18CA1AD2B240F2A823C2F223
:1012400000035A7040F2A823C2F200031B7803F196
:10125000FF33DAB240F2A823C2F200031A7000F0A2
:1012600009FC3B7803F1FF33032B25D801A252F888
:1012700023F000BF851200088F1200089D1200089D
:10128000A71200087B78184600F046FE15E07A7831
:101290007B681046194600F0DBF80EE07B781846B4
:1012A00000F08CFC09E07A787B681046194600F063
:1012B0001FFC02E000BF00E000BF40F2A823C2F222
:1012C00000031B78002B8BD100F0DCFB40F2A8233D
:1012D000C2F200031B78002B06D140F2D423C2F2E5
:1012E00000034FF000021A7000F0C4FB07F108077A
:1012F000BD4680BD80B582B000AF4FF010004FF00A
:10130000010100F07BF84FF004004FF0010100F004
:1013100075F84FF44073BB804FF01003FB714FF032
:101320000303BB714FF001033B804FF00403FB70DC
:101330004FF00303BB7007F104034FF48050C4F275
:1013400001001946FFF738FE3B464FF40060C4F237
:1013500001001946FFF730FE07F10807BD4680BDC2
:1013600080B582B000AF78604FF48050C4F20100C5
:101370004FF480714FF00102FFF7F6FE4FF4FA7060
:1013800000F09EF94FF48050C4F201004FF48071D8
:101390004FF00002FFF7E8FE4FF4FA7000F090F90A
:1013A000E2E700BF80B483B000AF7860FEE700BF23
:1013B00080B500AFFFF79EFFFEF722FF41F26130DC
:1013C000C0F600004FF000014FF40032094BFFF768
:1013D00047FD41F2A530C0F600004FF000014FF08C
:1013E0000102C0F20202044BFFF73AFDFEF75AFF7A
:1013F000FEE700BF3C0C00203C14002080B483B00A
:1014000000AF78600B46FB70FB78002B0CD04FF4DC
:101410008053C4F202034FF48052C4F20202916975
:101420007A680A439A610DE04FF48053C4F20203D4
:101430004FF48052C4F2020291697A686FEA0202A4
:101440000A409A6107F10C07BD4680BC704700BF97
:1014500080B584B000AF03463960FB71FB79132B74
:1014600002D94FF0010335E0FB794FEA031240F255
:10147000DC23C2F20003D318FB60FB685B7903F046
:101480000F03DBB2022B02D04FF0010322E0FB6816
:10149000DB88002B1CD140F2E503C2F200031B786D
:1014A000DBB203F10103DAB240F2E503C2F200035A
:1014B0001A70FB683A681A60FB684FF00102DA8024
:1014C000F86800F0EDF9FEF767FE4FF0000301E069
:1014D0004FF00703184607F11007BD4680BD00BF57
:1014E00080B485B000AF786039603B68002B7CD059
:1014F00040F2D823C2F200031B68002B09D17B689D
:101500003A681A6240F2D823C2F200037A681A607D
:101510005FE040F2D823C2F200031B68BB603B6867
:10152000FB6053E0FA68BB681B6AD31AFB60FB6878
:10153000002B37DABB689B6A002B0ED0BB689B6A16
:101540007A685A62BB689A6A7B689A627B68BA68F2
:101550005A62BB687A689A6213E040F2D823C2F2FA
:1015600000031A687B685A6240F2D823C2F2000373
:101570001B687A689A6240F2D823C2F200037A6844
:101580001A607B685B6A1A6AFB68D2187B681A6209
:101590007B685B6A7A68526A116A7A68126A8A1A88
:1015A0001A6216E0FB68002B0DDBBB685B6A002B40
:1015B00009D17B68BA689A62BB687A685A62FA682D
:1015C0007B681A6205E0BB685B6ABB60BB68002B86
:1015D000A8D17B684FF002025A7140F2E603C2F2D2
:1015E00000034FF001021A7000E000BF07F114077A
:1015F000BD4680BC704700BF80B483B000AF786048
:101600007B689B6A002B0BD17B685B6A002B07D140
:1016100040F2D823C2F200034FF000021A6046E005
:101620007B689B6A002B19D17B685A6A40F2D823E9
:10163000C2F200031A607B685B6A7A68526A116AB8
:101640007A68126A8A181A627B685B6A4FF0000235
:101650009A627B684FF000025A6228E07B685B6AFE
:10166000002B09D17B689B6A4FF000025A627B68AD
:101670004FF000029A621AE07B689B6A7A68526AAD
:101680005A627B685B6A7A68926A9A627B685B6A74
:101690007A68526A116A7A68126A8A181A627B68D2
:1016A0004FF000025A627B684FF000029A627B683A
:1016B0004FF0FF321A6207F10C07BD4680BC70473D
:1016C00080B582B000AF786040F2E403C2F200035C
:1016D0001B78DBB2002B02D04FF0030332E07B68B3
:1016E000B3F1FF3F02D14FF002032BE07B68002BE8
:1016F00002D14FF0000325E040F2E503C2F20003FF
:101700001B78DBB2002B02D04FF015031AE040F239
:10171000E503C2F200031B78DBB203F10103DAB286
:1017200040F2E503C2F200031A7040F29823C2F2BD
:1017300000031B6818467968FFF7D2FEFEF72CFD00
:101740004FF00003184607F10807BD4680BD00BFF3
:1017500080B582B000AF40F2D823C2F200031B680C
:101760007B602EE07B681B7AFF2B02D0786800F04C
:101770002BF97B68DB69002B04D07B68DB6918469A
:1017800000F0D6FA7B684FF0FF321A627B685A6A23
:1017900040F2D823C2F200031A607B684FF00002C7
:1017A0005A627868FFF772F940F2D823C2F2000358
:1017B0001B687B607B68002B03D07B684FF00002C6
:1017C0009A627B68002B03D07B681B6A002BC9D010
:1017D00007F10807BD4680BD80B500AF40F2E503C4
:1017E000C2F200031B78DBB2012B0ED940F2D423E6
:1017F000C2F200034FF001021A7040F2D523C2F288
:1018000000034FF001021A7001E0FFF7A1FF80BD55
:1018100080B485B000AF4FF00003FB7340F2DC23CF
:10182000C2F20003BB601D4B7B6018E0BB687A68A6
:101830001A60BB68FA7B1A71BA6853794FF00401D9
:1018400061F303035371BB6803F11003BB607B6852
:1018500003F110037B60FB7B03F10103FB73FB7B54
:10186000122BE3D9BA6853794FF0040161F30303F3
:101870005371BB684FF000021A60BB68FA7B1A71A3
:1018800040F21C43C2F2000340F2DC22C2F200022A
:101890001A6007F11407BD4680BC7047EC020020B7
:1018A00080B584B000AF78607B68DB68FB60FB6864
:1018B000002B00F08480FB685A697B68DA607B68E3
:1018C000DB68002B04D07B68DB684FF000029A6174
:1018D000FB684FF000025A61FB684FF0FF021A727A
:1018E000FB681B6AB3F1FF3F02D0F868FFF784FE84
:1018F0007B685B7903F00F03DBB2022B0FD17B68AF
:101900001A68FB681A617B684FF000021A607B68F6
:10191000DB8803F1FF339AB27B68DA803EE07B68B4
:101920005B7903F00F03DBB2032B25D17B681B68C7
:10193000BB60BB681A68BB68DB884FEA8303D318B7
:101940001A68FB681A61BB68DB8803F101039AB26D
:10195000BB68DA80BB689B8903F1FF339AB2BB682E
:101960009A81BB68DA88BB685B899A4216D1BB68EA
:101970004FF00002DA8011E07B685B7903F00F031F
:10198000DBB2012B0AD17B68DB8803F1FF339AB20B
:101990007B68DA80FB684FF0FF321A6140F29823CF
:1019A000C2F200031B68FA689A4204D1FB684FF048
:1019B00001025A7104E0F868FFF768F800E000BF20
:1019C00007F11007BD4680BD80B485B000AF7860D8
:1019D0007B681B7A4FEA031240F2DC23C2F2000359
:1019E000D318FB607B685B69002B08D17B689B691F
:1019F000002B04D1FB684FF00002DA6031E07B6815
:101A00009B69002B0DD17B685B694FF000029A61E6
:101A10007B685A69FB68DA607B684FF000025A61A4
:101A20001FE07B685B69002B09D17B689B694FF0E5
:101A300000025A617B684FF000029A6111E07B68F6
:101A40009B697A6852695A617B685B697A689269B6
:101A50009A617B684FF000029A617B684FF0000248
:101A60005A617B684FF0FF021A7207F11407BD46F6
:101A700080BC704780B400AF62B600BFBD4680BC7A
:101A8000704700BF80B400AF72B600BFBD4680BCD7
:101A9000704700BFA0F11C0080F30988704700BFA9
:101AA000024B1B68024A1168196070470000002051
:101AB000040000200B4B19680B4A1268914200F099
:101AC0000B80EFF3098020E9F00F08601A601068BE
:101AD000B0E8F00F80F30988044B002018704EF036
:101AE000040E70479802002094020020E5000020B8
:101AF00080B584B000AF03463960FB71FB79132BCE
:101B000002D94FF0010354E0FB794FEA031240F28F
:101B1000DC23C2F20003D318FB60FB685B7903F09F
:101B20000F03DBB2032B02D04FF0010341E0FB684F
:101B30001B68BB60BB689A89BB685B899A4202D10B
:101B40004FF0080335E040F2E503C2F200031B78D2
:101B5000DBB203F10103DAB240F2E503C2F20003A3
:101B60001A70BB681A68BB681B894FEA8303D318D5
:101B70003A681A60BB681B8903F101039AB2BB681B
:101B80001A81BB689B8903F101039AB2BB689A81F1
:101B9000BB681A89BB685B899A4203D1BB684FF066
:101BA00000021A81F868FFF77BFEFEF7F5FA4FF0A6
:101BB0000003184607F11007BD4680BD80B584B00C
:101BC00000AF0346FB7140F22043C2F20003BB604A
:101BD000FB791F2B02D94FF0010375E0BB689A68AF
:101BE000FB794FF0010101FA03F31340002B02D1FE
:101BF0004FF0010368E0BB681A68FB794FF0010100
:101C000001FA03F31340002B02D04FF000035BE016
:101C1000BB681A68FB794FF0010101FA03F31A431C
:101C2000BB681A6040F2E503C2F200031B78DBB226
:101C300003F10103DAB240F2E503C2F200031A70C5
:101C4000BB68DB68FB6038E0FB681B7C002B17D1AE
:101C5000FB689A68BB681B681A40FB689B689A42DD
:101C600024D1F86800F036F8F860BB685A68FB7950
:101C70004FF0010101FA03F31340002B1AD01FE0CB
:101C8000FB689A68BB681B681340002B0ED0F8688D
:101C900000F020F8F860BB685A68FB794FF001014A
:101CA00001FA03F31340002B06D009E0FB681B6820
:101CB000FB6002E000BF00E000BFFB68002BC3D167
:101CC000FEF76AFA4FF00003184607F11007BD4609
:101CD00080BD00BF80B584B000AF7860786800F048
:101CE00027F87B68DB68FB60FB681B6AB3F1FF3F8A
:101CF00002D0F868FFF780FCFB684FF0FF32DA6132
:101D000040F29823C2F200031B68FA689A4204D199
:101D1000FB684FF001025A7102E0F868FEF7B6FE68
:101D20007B681B68184607F11007BD4680BD00BFE1
:101D300080B483B000AF78607B681B68002B12D141
:101D40007B685B68002B0ED140F22043C2F2000397
:101D50004FF00002DA6040F22043C2F200034FF07D
:101D600000021A612BE07B681B68002B0CD17B689A
:101D70005A6840F22043C2F200031A617B685B6834
:101D80004FF000021A601AE07B685B68002B0CD1F0
:101D90007B681A6840F22043C2F20003DA607B6875
:101DA0001B684FF000025A6009E07B681B687A6884
:101DB00052685A607B685B687A6812681A607B6850
:101DC000DB684FF00002DA6107F10C07BD4680BC0A
:101DD000704700BF80B487B000AFF860B9607A6028
:101DE0007B687B617B694FF080721A607B69A3F12D
:101DF00004037B61FA687B691A607B69A3F10403C1
:101E00007B617B696FF001021A607B69A3F11403A7
:101E10007B61BA687B691A607B69A3F120037B61EF
:101E20007B69184607F11C07BD4680BC704700BFA0
:101E300080B500AF40F2E503C2F200031B78DBB2CD
:101E400003F10103DAB240F2E503C2F200031A70B3
:101E500040F23843C2F20003D3E900014FF001021F
:101E60004FF00003801841EB030140F23843C2F207
:101E70000003C3E9000140F2D823C2F200031B684B
:101E8000002B1BD040F2D823C2F200031B681B6A50
:101E9000012B09D940F2D823C2F200031B681A6A49
:101EA00002F1FF321A6209E040F2D823C2F20003C5
:101EB0001B684FF000021A62FFF78EFC40F2181305
:101EC000C2F200031B68002B1BD040F21813C2F2B1
:101ED00000031B685B68012B09D940F21813C2F29A
:101EE00000031B685A6802F1FF325A6009E040F2B1
:101EF0001813C2F200031B684FF000025A60FEF78D
:101F00005BFC40F2E603C2F200034FF001021A70DC
:101F1000FEF742F980BD00BF80B584B000AF034634
:101F2000FB71FB79132B02D94FF0010337E0FB79EA
:101F30004FEA031240F2DC23C2F20003D318FB6025
:101F4000FB685B7903F00F03DBB2012B02D04FF08B
:101F5000010324E0FB68DA88FB681B899A4202D1FE
:101F60004FF006031BE040F2E503C2F200031B78CA
:101F7000DBB203F10103DAB240F2E503C2F200037F
:101F80001A70FB68DB8803F101039AB2FB68DA8000
:101F9000F868FFF785FCFEF7FFF84FF000031846DE
:101FA00007F11007BD4680BD80B483B000AF7860F4
:101FB000FEE700BF80B483B000AF0346FB71FEE7CD
:0C1FC00004ED00E000000010FCFFFFFF3B
:0400000508000000EF
:00000001FF
